{
  "contractName": "Metadata",
  "abi": [
    {
      "inputs": [
        {
          "internalType": "string",
          "name": "_baseUrl",
          "type": "string"
        }
      ],
      "payable": false,
      "stateMutability": "nonpayable",
      "type": "constructor"
    },
    {
      "constant": true,
      "inputs": [
        {
          "internalType": "uint256",
          "name": "_tokenId",
          "type": "uint256"
        }
      ],
      "name": "tokenURI",
      "outputs": [
        {
          "internalType": "string",
          "name": "_infoUrl",
          "type": "string"
        }
      ],
      "payable": false,
      "stateMutability": "view",
      "type": "function"
    },
    {
      "constant": true,
      "inputs": [],
      "name": "contractURI",
      "outputs": [
        {
          "internalType": "string",
          "name": "",
          "type": "string"
        }
      ],
      "payable": false,
      "stateMutability": "view",
      "type": "function"
    },
    {
      "constant": true,
      "inputs": [
        {
          "internalType": "uint256",
          "name": "x",
          "type": "uint256"
        }
      ],
      "name": "toBytes",
      "outputs": [
        {
          "internalType": "bytes",
          "name": "b",
          "type": "bytes"
        }
      ],
      "payable": false,
      "stateMutability": "pure",
      "type": "function"
    }
  ],
  "bytecode": "0x608060405234801561001057600080fd5b506040516108e53803806108e58339818101604052602081101561003357600080fd5b810190808051604051939291908464010000000082111561005357600080fd5b8382019150602082018581111561006957600080fd5b825186600182028301116401000000008211171561008657600080fd5b8083526020830192505050908051906020019080838360005b838110156100ba57808201518184015260208101905061009f565b50505050905090810190601f1680156100e75780820380516001836020036101000a031916815260200191505b50604052505050806000908051906020019061010492919061010b565b50506101b0565b828054600181600116156101000203166002900490600052602060002090601f016020900481019282601f1061014c57805160ff191683800117855561017a565b8280016001018555821561017a579182015b8281111561017957825182559160200191906001019061015e565b5b509050610187919061018b565b5090565b6101ad91905b808211156101a9576000816000905550600101610191565b5090565b90565b610726806101bf6000396000f3fe608060405234801561001057600080fd5b50600436106100415760003560e01c8063775a8f5e14610046578063c87b56dd146100ed578063e8a3d48514610194575b600080fd5b6100726004803603602081101561005c57600080fd5b8101908080359060200190929190505050610217565b6040518080602001828103825283818151815260200191508051906020019080838360005b838110156100b2578082015181840152602081019050610097565b50505050905090810190601f1680156100df5780820380516001836020036101000a031916815260200191505b509250505060405180910390f35b6101196004803603602081101561010357600080fd5b810190808035906020019092919050505061025b565b6040518080602001828103825283818151815260200191508051906020019080838360005b8381101561015957808201518184015260208101905061013e565b50505050905090810190601f1680156101865780820380516001836020036101000a031916815260200191505b509250505060405180910390f35b61019c610391565b6040518080602001828103825283818151815260200191508051906020019080838360005b838110156101dc5780820151818401526020810190506101c1565b50505050905090810190601f1680156102095780820380516001836020036101000a031916815260200191505b509250505060405180910390f35b606060206040519080825280601f01601f19166020018201604052801561024d5781602001600182028038833980820191505090505b509050816020820152919050565b6060806040518060400160405280600d81526020017f2f76312f6d657461646174612f00000000000000000000000000000000000000815250905060606103556102a48361048f565b61034760008054600181600116156101000203166002900480601f01602080910402602001604051908101604052809291908181526020018280546001816001161561010002031660029004801561033d5780601f106103125761010080835404028352916020019161033d565b820191906000526020600020905b81548152906001019060200180831161032057829003601f168201915b505050505061048f565b6104bd90919063ffffffff16565b905060606103628561053f565b90506103876103708261048f565b6103798461048f565b6104bd90919063ffffffff16565b9350505050919050565b6060806040518060400160405280600c81526020017f2f76312f6d65746164617461000000000000000000000000000000000000000081525090506104896103d88261048f565b61047b60008054600181600116156101000203166002900480601f0160208091040260200160405190810160405280929190818152602001828054600181600116156101000203166002900480156104715780601f1061044657610100808354040283529160200191610471565b820191906000526020600020905b81548152906001019060200180831161045457829003601f168201915b505050505061048f565b6104bd90919063ffffffff16565b91505090565b6104976106d7565b600060208301905060405180604001604052808451815260200182815250915050919050565b60608082600001518460000151016040519080825280601f01601f1916602001820160405280156104fd5781602001600182028038833980820191505090505b509050600060208201905061051b818660200151876000015161068e565b610534856000015182018560200151866000015161068e565b819250505092915050565b60606000821415610587576040518060400160405280600181526020017f30000000000000000000000000000000000000000000000000000000000000008152509050610689565b600082905060005b600082146105b1578080600101915050600a82816105a957fe5b04915061058f565b6060816040519080825280601f01601f1916602001820160405280156105e65781602001600182028038833980820191505090505b50905060006001830390505b60008614610681576000600a878161060657fe5b06603001905061061581610217565b601f8151811061062157fe5b602001015160f81c60f81b8383806001900394508151811061063f57fe5b60200101907effffffffffffffffffffffffffffffffffffffffffffffffffffffffffffff1916908160001a905350600a878161067857fe5b049650506105f2565b819450505050505b919050565b5b602081106106b2578151835260208301925060208201915060208103905061068f565b60006001826020036101000a0390508019835116818551168181178652505050505050565b60405180604001604052806000815260200160008152509056fea265627a7a72315820d3418e78e8d47c6d4864b1298378f12a23c2db1eceba51f5b9205436aaf1f85d64736f6c63430005100032",
  "source": "pragma solidity ^0.5.0;\n/**\n* Metadata contract is upgradeable and returns metadata about Token\n*/\n\nimport \"./helpers/strings.sol\";\n\ncontract Metadata {\n    using strings for *;\n\n    string private baseUrl;\n\n    constructor(string memory _baseUrl) public {\n        baseUrl = _baseUrl;\n    }\n\n    function tokenURI(uint _tokenId) public view returns (string memory _infoUrl) {\n        string memory basePath = \"/v1/metadata/\";\n        string memory base = baseUrl.toSlice().concat(basePath.toSlice());\n        string memory id = uint2str(_tokenId);\n        return base.toSlice().concat(id.toSlice());\n    }\n\n    function contractURI() public view returns (string memory) {\n        string memory path = \"/v1/metadata\";\n        return baseUrl.toSlice().concat(path.toSlice());\n    }\n\n    function uint2str(uint i) internal pure returns (string memory) {\n        if (i == 0) return \"0\";\n        uint j = i;\n        uint length;\n        while (j != 0) {\n            length++;\n            j /= 10;\n        }\n        bytes memory bstr = new bytes(length);\n        uint k = length - 1;\n        while (i != 0) {\n            uint _uint = 48 + i % 10;\n            bstr[k--] = toBytes(_uint)[31];\n            i /= 10;\n        }\n        return string(bstr);\n    }\n    function toBytes(uint256 x) public pure returns (bytes memory b) {\n        b = new bytes(32);\n        assembly { mstore(add(b, 32), x) }\n    }\n}",
  "sourcePath": "/Users/cory/Code/pan/scammer-contracts/contracts/Metadata.sol",
  "compiler": {
    "name": "solc",
    "version": "0.5.16+commit.9c3226ce.Emscripten.clang"
  },
  "schemaVersion": "3.3.4",
  "updatedAt": "2021-08-21T19:26:45.460Z",
  "networkType": "ethereum",
  "devdoc": {
    "methods": {}
  },
  "userdoc": {
    "methods": {}
  }
}