{
  "contractName": "ReserveAuction",
  "abi": [
    {
      "inputs": [
        {
          "internalType": "address",
          "name": "_nftAddress",
          "type": "address"
        }
      ],
      "payable": false,
      "stateMutability": "nonpayable",
      "type": "constructor"
    },
    {
      "anonymous": false,
      "inputs": [
        {
          "indexed": false,
          "internalType": "uint256",
          "name": "tokenId",
          "type": "uint256"
        },
        {
          "indexed": false,
          "internalType": "address",
          "name": "nftAddress",
          "type": "address"
        },
        {
          "indexed": false,
          "internalType": "address",
          "name": "sender",
          "type": "address"
        },
        {
          "indexed": false,
          "internalType": "uint256",
          "name": "value",
          "type": "uint256"
        },
        {
          "indexed": false,
          "internalType": "uint256",
          "name": "timestamp",
          "type": "uint256"
        },
        {
          "indexed": false,
          "internalType": "bool",
          "name": "firstBid",
          "type": "bool"
        },
        {
          "indexed": false,
          "internalType": "bool",
          "name": "extended",
          "type": "bool"
        }
      ],
      "name": "AuctionBid",
      "type": "event"
    },
    {
      "anonymous": false,
      "inputs": [
        {
          "indexed": false,
          "internalType": "uint256",
          "name": "tokenId",
          "type": "uint256"
        },
        {
          "indexed": false,
          "internalType": "address",
          "name": "nftAddress",
          "type": "address"
        },
        {
          "indexed": false,
          "internalType": "address",
          "name": "creator",
          "type": "address"
        }
      ],
      "name": "AuctionCanceled",
      "type": "event"
    },
    {
      "anonymous": false,
      "inputs": [
        {
          "indexed": false,
          "internalType": "uint256",
          "name": "tokenId",
          "type": "uint256"
        },
        {
          "indexed": false,
          "internalType": "address",
          "name": "nftAddress",
          "type": "address"
        },
        {
          "indexed": false,
          "internalType": "uint256",
          "name": "duration",
          "type": "uint256"
        },
        {
          "indexed": false,
          "internalType": "uint256",
          "name": "reservePrice",
          "type": "uint256"
        },
        {
          "indexed": false,
          "internalType": "address",
          "name": "creator",
          "type": "address"
        }
      ],
      "name": "AuctionCreated",
      "type": "event"
    },
    {
      "anonymous": false,
      "inputs": [
        {
          "indexed": false,
          "internalType": "uint256",
          "name": "tokenId",
          "type": "uint256"
        },
        {
          "indexed": false,
          "internalType": "address",
          "name": "nftAddress",
          "type": "address"
        },
        {
          "indexed": false,
          "internalType": "address",
          "name": "creator",
          "type": "address"
        },
        {
          "indexed": false,
          "internalType": "address",
          "name": "winner",
          "type": "address"
        },
        {
          "indexed": false,
          "internalType": "uint256",
          "name": "amount",
          "type": "uint256"
        }
      ],
      "name": "AuctionEnded",
      "type": "event"
    },
    {
      "anonymous": false,
      "inputs": [
        {
          "indexed": true,
          "internalType": "address",
          "name": "previousOwner",
          "type": "address"
        },
        {
          "indexed": true,
          "internalType": "address",
          "name": "newOwner",
          "type": "address"
        }
      ],
      "name": "OwnershipTransferred",
      "type": "event"
    },
    {
      "anonymous": false,
      "inputs": [
        {
          "indexed": false,
          "internalType": "uint256",
          "name": "tokenId",
          "type": "uint256"
        },
        {
          "indexed": false,
          "internalType": "bool",
          "name": "paused",
          "type": "bool"
        }
      ],
      "name": "UpdateAuction",
      "type": "event"
    },
    {
      "constant": true,
      "inputs": [
        {
          "internalType": "uint256",
          "name": "",
          "type": "uint256"
        }
      ],
      "name": "auctions",
      "outputs": [
        {
          "internalType": "bool",
          "name": "exists",
          "type": "bool"
        },
        {
          "internalType": "bool",
          "name": "paused",
          "type": "bool"
        },
        {
          "internalType": "uint256",
          "name": "amount",
          "type": "uint256"
        },
        {
          "internalType": "uint256",
          "name": "tokenId",
          "type": "uint256"
        },
        {
          "internalType": "uint256",
          "name": "duration",
          "type": "uint256"
        },
        {
          "internalType": "uint256",
          "name": "firstBidTime",
          "type": "uint256"
        },
        {
          "internalType": "uint256",
          "name": "reservePrice",
          "type": "uint256"
        },
        {
          "internalType": "uint256",
          "name": "adminSplit",
          "type": "uint256"
        },
        {
          "internalType": "address",
          "name": "creator",
          "type": "address"
        },
        {
          "internalType": "address payable",
          "name": "admin",
          "type": "address"
        },
        {
          "internalType": "address payable",
          "name": "proceedsRecipient",
          "type": "address"
        },
        {
          "internalType": "address payable",
          "name": "bidder",
          "type": "address"
        }
      ],
      "payable": false,
      "stateMutability": "view",
      "type": "function"
    },
    {
      "constant": true,
      "inputs": [],
      "name": "globalPaused",
      "outputs": [
        {
          "internalType": "bool",
          "name": "",
          "type": "bool"
        }
      ],
      "payable": false,
      "stateMutability": "view",
      "type": "function"
    },
    {
      "constant": true,
      "inputs": [],
      "name": "isOwner",
      "outputs": [
        {
          "internalType": "bool",
          "name": "",
          "type": "bool"
        }
      ],
      "payable": false,
      "stateMutability": "view",
      "type": "function"
    },
    {
      "constant": true,
      "inputs": [],
      "name": "minBid",
      "outputs": [
        {
          "internalType": "uint256",
          "name": "",
          "type": "uint256"
        }
      ],
      "payable": false,
      "stateMutability": "view",
      "type": "function"
    },
    {
      "constant": true,
      "inputs": [],
      "name": "nftAddress",
      "outputs": [
        {
          "internalType": "address",
          "name": "",
          "type": "address"
        }
      ],
      "payable": false,
      "stateMutability": "view",
      "type": "function"
    },
    {
      "constant": true,
      "inputs": [],
      "name": "owner",
      "outputs": [
        {
          "internalType": "address",
          "name": "",
          "type": "address"
        }
      ],
      "payable": false,
      "stateMutability": "view",
      "type": "function"
    },
    {
      "constant": false,
      "inputs": [],
      "name": "renounceOwnership",
      "outputs": [],
      "payable": false,
      "stateMutability": "nonpayable",
      "type": "function"
    },
    {
      "constant": true,
      "inputs": [],
      "name": "timeBuffer",
      "outputs": [
        {
          "internalType": "uint256",
          "name": "",
          "type": "uint256"
        }
      ],
      "payable": false,
      "stateMutability": "view",
      "type": "function"
    },
    {
      "constant": true,
      "inputs": [
        {
          "internalType": "uint256",
          "name": "",
          "type": "uint256"
        }
      ],
      "name": "tokenIds",
      "outputs": [
        {
          "internalType": "uint256",
          "name": "",
          "type": "uint256"
        }
      ],
      "payable": false,
      "stateMutability": "view",
      "type": "function"
    },
    {
      "constant": false,
      "inputs": [
        {
          "internalType": "address",
          "name": "newOwner",
          "type": "address"
        }
      ],
      "name": "transferOwnership",
      "outputs": [],
      "payable": false,
      "stateMutability": "nonpayable",
      "type": "function"
    },
    {
      "constant": false,
      "inputs": [
        {
          "internalType": "address",
          "name": "_nftAddress",
          "type": "address"
        }
      ],
      "name": "updateNftAddress",
      "outputs": [],
      "payable": false,
      "stateMutability": "nonpayable",
      "type": "function"
    },
    {
      "constant": false,
      "inputs": [
        {
          "internalType": "uint256",
          "name": "_minBid",
          "type": "uint256"
        }
      ],
      "name": "updateMinBid",
      "outputs": [],
      "payable": false,
      "stateMutability": "nonpayable",
      "type": "function"
    },
    {
      "constant": false,
      "inputs": [
        {
          "internalType": "uint256",
          "name": "_timeBuffer",
          "type": "uint256"
        }
      ],
      "name": "updateTimeBuffer",
      "outputs": [],
      "payable": false,
      "stateMutability": "nonpayable",
      "type": "function"
    },
    {
      "constant": false,
      "inputs": [
        {
          "internalType": "uint256",
          "name": "tokenId",
          "type": "uint256"
        },
        {
          "internalType": "bool",
          "name": "paused",
          "type": "bool"
        }
      ],
      "name": "updateAuction",
      "outputs": [],
      "payable": false,
      "stateMutability": "nonpayable",
      "type": "function"
    },
    {
      "constant": false,
      "inputs": [
        {
          "internalType": "bool",
          "name": "paused",
          "type": "bool"
        },
        {
          "internalType": "uint256",
          "name": "tokenId",
          "type": "uint256"
        },
        {
          "internalType": "uint256",
          "name": "duration",
          "type": "uint256"
        },
        {
          "internalType": "uint256",
          "name": "reservePrice",
          "type": "uint256"
        },
        {
          "internalType": "uint256",
          "name": "adminSplit",
          "type": "uint256"
        },
        {
          "internalType": "address payable",
          "name": "admin",
          "type": "address"
        },
        {
          "internalType": "address payable",
          "name": "proceedsRecipient",
          "type": "address"
        }
      ],
      "name": "createAuction",
      "outputs": [],
      "payable": false,
      "stateMutability": "nonpayable",
      "type": "function"
    },
    {
      "constant": false,
      "inputs": [
        {
          "internalType": "uint256",
          "name": "tokenId",
          "type": "uint256"
        }
      ],
      "name": "createBid",
      "outputs": [],
      "payable": true,
      "stateMutability": "payable",
      "type": "function"
    },
    {
      "constant": false,
      "inputs": [
        {
          "internalType": "uint256",
          "name": "tokenId",
          "type": "uint256"
        }
      ],
      "name": "endAuction",
      "outputs": [],
      "payable": false,
      "stateMutability": "nonpayable",
      "type": "function"
    },
    {
      "constant": false,
      "inputs": [
        {
          "internalType": "uint256",
          "name": "tokenId",
          "type": "uint256"
        }
      ],
      "name": "cancelAuction",
      "outputs": [],
      "payable": false,
      "stateMutability": "nonpayable",
      "type": "function"
    },
    {
      "constant": false,
      "inputs": [
        {
          "internalType": "bool",
          "name": "_globalPaused",
          "type": "bool"
        }
      ],
      "name": "updatePaused",
      "outputs": [],
      "payable": false,
      "stateMutability": "nonpayable",
      "type": "function"
    }
  ],
  "bytecode": "0x608060405261038460035567016345785d8a00006004553480156200002357600080fd5b5060405162002f3d38038062002f3d83398181016040526200004991908101906200025a565b336000806101000a81548173ffffffffffffffffffffffffffffffffffffffff021916908373ffffffffffffffffffffffffffffffffffffffff1602179055506000809054906101000a900473ffffffffffffffffffffffffffffffffffffffff1673ffffffffffffffffffffffffffffffffffffffff16600073ffffffffffffffffffffffffffffffffffffffff167f8be0079c531659141344cd1fd0a4f28419497f9722a3daafe3b4186f6b6457e060405160405180910390a3600180819055508073ffffffffffffffffffffffffffffffffffffffff166301ffc9a76380ac58cd60e01b6040518263ffffffff1660e01b81526004016200014e919062000305565b60206040518083038186803b1580156200016757600080fd5b505afa1580156200017c573d6000803e3d6000fd5b505050506040513d601f19601f82011682018060405250620001a2919081019062000286565b620001e4576040517f08c379a0000000000000000000000000000000000000000000000000000000008152600401620001db9062000322565b60405180910390fd5b80600560006101000a81548173ffffffffffffffffffffffffffffffffffffffff021916908373ffffffffffffffffffffffffffffffffffffffff16021790555050620003f5565b6000815190506200023d81620003c1565b92915050565b6000815190506200025481620003db565b92915050565b6000602082840312156200026d57600080fd5b60006200027d848285016200022c565b91505092915050565b6000602082840312156200029957600080fd5b6000620002a98482850162000243565b91505092915050565b620002bd8162000375565b82525050565b6000620002d2601d8362000344565b91507f446f65736e277420737570706f7274204e465420696e746572666163650000006000830152602082019050919050565b60006020820190506200031c6000830184620002b2565b92915050565b600060208201905081810360008301526200033d81620002c3565b9050919050565b600082825260208201905092915050565b60006200036282620003a1565b9050919050565b60008115159050919050565b60007fffffffff0000000000000000000000000000000000000000000000000000000082169050919050565b600073ffffffffffffffffffffffffffffffffffffffff82169050919050565b620003cc8162000355565b8114620003d857600080fd5b50565b620003e68162000369565b8114620003f257600080fd5b50565b612b3880620004056000396000f3fe6080604052600436106101145760003560e01c8063715018a6116100a0578063b9a2de3a11610064578063b9a2de3a14610361578063d58778d61461038a578063e5eb7ae8146103c7578063ec91f2a4146103f0578063f2fde38b1461041b57610114565b8063715018a6146102a25780638da5cb5b146102b95780638f32d59b146102e457806396b5a7551461030f5780639b8e5d621461033857610114565b80633e109a19116100e75780633e109a19146101bd578063571a26a0146101e85780635bf8633a1461023057806361a552dc1461025b578063659dd2b41461028657610114565b806308cdc2a8146101195780633166fd1d1461014257806331c28e901461016b578063389bb6a414610194575b600080fd5b34801561012557600080fd5b50610140600480360361013b9190810190611f3c565b610444565b005b34801561014e57600080fd5b506101696004803603610164919081019061202c565b610472565b005b34801561017757600080fd5b50610192600480360361018d9190810190612055565b61048d565b005b3480156101a057600080fd5b506101bb60048036036101b69190810190611f8e565b61056c565b005b3480156101c957600080fd5b506101d261096e565b6040516101df919061283c565b60405180910390f35b3480156101f457600080fd5b5061020f600480360361020a919081019061202c565b610974565b6040516102279c9b9a999897969594939291906125a7565b60405180910390f35b34801561023c57600080fd5b50610245610a6e565b6040516102529190612503565b60405180910390f35b34801561026757600080fd5b50610270610a94565b60405161027d919061258c565b60405180910390f35b6102a0600480360361029b919081019061202c565b610aa7565b005b3480156102ae57600080fd5b506102b761103c565b005b3480156102c557600080fd5b506102ce61110c565b6040516102db9190612503565b60405180910390f35b3480156102f057600080fd5b506102f9611135565b604051610306919061258c565b60405180910390f35b34801561031b57600080fd5b506103366004803603610331919081019061202c565b61118c565b005b34801561034457600080fd5b5061035f600480360361035a919081019061202c565b611586565b005b34801561036d57600080fd5b506103886004803603610383919081019061202c565b6115a1565b005b34801561039657600080fd5b506103b160048036036103ac919081019061202c565b611bab565b6040516103be919061283c565b60405180910390f35b3480156103d357600080fd5b506103ee60048036036103e99190810190611f13565b611bcc565b005b3480156103fc57600080fd5b50610405611cf0565b604051610412919061283c565b60405180910390f35b34801561042757600080fd5b50610442600480360361043d9190810190611f13565b611cf6565b005b61044c611135565b61045557600080fd5b80600260006101000a81548160ff02191690831515021790555050565b61047a611135565b61048357600080fd5b8060048190555050565b610495611135565b61049e57600080fd5b6006600083815260200190815260200160002060000160009054906101000a900460ff16610501576040517f08c379a00000000000000000000000000000000000000000000000000000000081526004016104f89061273c565b60405180910390fd5b806006600084815260200190815260200160002060000160016101000a81548160ff0219169083151502179055507f6c17b6afb000df6548f717a281c368a89912f8a6ec06177486f77916c507a03182826040516105609291906129a3565b60405180910390a15050565b600260009054906101000a900460ff16156105bc576040517f08c379a00000000000000000000000000000000000000000000000000000000081526004016105b39061271c565b60405180910390fd5b6105c4611135565b6105cd57600080fd5b60018060008282540192505081905550600060015490506006600088815260200190815260200160002060000160009054906101000a900460ff1615610648576040517f08c379a000000000000000000000000000000000000000000000000000000000815260040161063f9061267c565b60405180910390fd5b6064841061068b576040517f08c379a00000000000000000000000000000000000000000000000000000000081526004016106829061277c565b60405180910390fd5b6007879080600181540180825580915050906001820390600052602060002001600090919290919091505550876006600089815260200190815260200160002060000160016101000a81548160ff02191690831515021790555060016006600089815260200190815260200160002060000160006101000a81548160ff021916908315150217905550856006600089815260200190815260200160002060030181905550846006600089815260200190815260200160002060050181905550836006600089815260200190815260200160002060060181905550336006600089815260200190815260200160002060070160006101000a81548173ffffffffffffffffffffffffffffffffffffffff021916908373ffffffffffffffffffffffffffffffffffffffff160217905550826006600089815260200190815260200160002060080160006101000a81548173ffffffffffffffffffffffffffffffffffffffff021916908373ffffffffffffffffffffffffffffffffffffffff160217905550816006600089815260200190815260200160002060090160006101000a81548173ffffffffffffffffffffffffffffffffffffffff021916908373ffffffffffffffffffffffffffffffffffffffff160217905550600560009054906101000a900473ffffffffffffffffffffffffffffffffffffffff1673ffffffffffffffffffffffffffffffffffffffff166323b872dd33308a6040518463ffffffff1660e01b81526004016108c39392919061251e565b600060405180830381600087803b1580156108dd57600080fd5b505af11580156108f1573d6000803e3d6000fd5b505050507f082e2e78efcea783a9afe8f62b658bcf1e3482f87016915ab4214c446b69f43e87600560009054906101000a900473ffffffffffffffffffffffffffffffffffffffff1688883360405161094e959493929190612950565b60405180910390a1600154811461096457600080fd5b5050505050505050565b60045481565b60066020528060005260406000206000915090508060000160009054906101000a900460ff16908060000160019054906101000a900460ff16908060010154908060020154908060030154908060040154908060050154908060060154908060070160009054906101000a900473ffffffffffffffffffffffffffffffffffffffff16908060080160009054906101000a900473ffffffffffffffffffffffffffffffffffffffff16908060090160009054906101000a900473ffffffffffffffffffffffffffffffffffffffff169080600a0160009054906101000a900473ffffffffffffffffffffffffffffffffffffffff1690508c565b600560009054906101000a900473ffffffffffffffffffffffffffffffffffffffff1681565b600260009054906101000a900460ff1681565b600260009054906101000a900460ff1615610af7576040517f08c379a0000000000000000000000000000000000000000000000000000000008152600401610aee9061271c565b60405180910390fd5b60018060008282540192505081905550600060015490506006600083815260200190815260200160002060000160009054906101000a900460ff16610b71576040517f08c379a0000000000000000000000000000000000000000000000000000000008152600401610b689061273c565b60405180910390fd5b6006600083815260200190815260200160002060000160019054906101000a900460ff1615610bd5576040517f08c379a0000000000000000000000000000000000000000000000000000000008152600401610bcc9061275c565b60405180910390fd5b6006600083815260200190815260200160002060050154341015610c2e576040517f08c379a0000000000000000000000000000000000000000000000000000000008152600401610c259061279c565b60405180910390fd5b600060066000848152602001908152602001600020600401541480610c805750600660008381526020019081526020016000206003015460066000848152602001908152602001600020600401540142105b610cbf576040517f08c379a0000000000000000000000000000000000000000000000000000000008152600401610cb6906127fc565b60405180910390fd5b60006006600084815260200190815260200160002060010154905060008060008314610dbc57823411610d27576040517f08c379a0000000000000000000000000000000000000000000000000000000008152600401610d1e906126fc565b60405180910390fd5b600454610d3d8434611d1390919063ffffffff16565b1015610d7e576040517f08c379a0000000000000000000000000000000000000000000000000000000008152600401610d759061281c565b60405180910390fd5b60066000868152602001908152602001600020600a0160009054906101000a900473ffffffffffffffffffffffffffffffffffffffff169050610ddc565b600191504260066000878152602001908152602001600020600401819055505b3460066000878152602001908152602001600020600101819055503360066000878152602001908152602001600020600a0160006101000a81548173ffffffffffffffffffffffffffffffffffffffff021916908373ffffffffffffffffffffffffffffffffffffffff1602179055506000600354610ea242610e94600660008b815260200190815260200160002060030154600660008c815260200190815260200160002060040154611d3390919063ffffffff16565b611d1390919063ffffffff16565b1015610f0457610ee5600354610ed7600660008a81526020019081526020016000206004015442611d1390919063ffffffff16565b611d3390919063ffffffff16565b6006600088815260200190815260200160002060030181905550600190505b7f17aab958f10298d4269017458487925b395b4f89ddd829049ea143fd754cf7a986600560009054906101000a900473ffffffffffffffffffffffffffffffffffffffff163334428887604051610f61979695949392919061288e565b60405180910390a182611026578173ffffffffffffffffffffffffffffffffffffffff166108fc859081150290604051600060405180830381858888f19350505050611025576006600087815260200190815260200160002060080160009054906101000a900473ffffffffffffffffffffffffffffffffffffffff1673ffffffffffffffffffffffffffffffffffffffff166108fc859081150290604051600060405180830381858888f19350505050158015611023573d6000803e3d6000fd5b505b5b50505050600154811461103857600080fd5b5050565b611044611135565b61104d57600080fd5b600073ffffffffffffffffffffffffffffffffffffffff166000809054906101000a900473ffffffffffffffffffffffffffffffffffffffff1673ffffffffffffffffffffffffffffffffffffffff167f8be0079c531659141344cd1fd0a4f28419497f9722a3daafe3b4186f6b6457e060405160405180910390a360008060006101000a81548173ffffffffffffffffffffffffffffffffffffffff021916908373ffffffffffffffffffffffffffffffffffffffff160217905550565b60008060009054906101000a900473ffffffffffffffffffffffffffffffffffffffff16905090565b60008060009054906101000a900473ffffffffffffffffffffffffffffffffffffffff1673ffffffffffffffffffffffffffffffffffffffff163373ffffffffffffffffffffffffffffffffffffffff1614905090565b60018060008282540192505081905550600060015490506006600083815260200190815260200160002060000160009054906101000a900460ff16611206576040517f08c379a00000000000000000000000000000000000000000000000000000000081526004016111fd9061273c565b60405180910390fd5b3373ffffffffffffffffffffffffffffffffffffffff166006600084815260200190815260200160002060070160009054906101000a900473ffffffffffffffffffffffffffffffffffffffff1673ffffffffffffffffffffffffffffffffffffffff1614806112a8575061127961110c565b73ffffffffffffffffffffffffffffffffffffffff163373ffffffffffffffffffffffffffffffffffffffff16145b6112e7576040517f08c379a00000000000000000000000000000000000000000000000000000000081526004016112de906126dc565b60405180910390fd5b6000600660008481526020019081526020016000206004015414611340576040517f08c379a00000000000000000000000000000000000000000000000000000000081526004016113379061269c565b60405180910390fd5b60006006600084815260200190815260200160002060070160009054906101000a900473ffffffffffffffffffffffffffffffffffffffff16905060066000848152602001908152602001600020600080820160006101000a81549060ff02191690556000820160016101000a81549060ff02191690556001820160009055600282016000905560038201600090556004820160009055600582016000905560068201600090556007820160006101000a81549073ffffffffffffffffffffffffffffffffffffffff02191690556008820160006101000a81549073ffffffffffffffffffffffffffffffffffffffff02191690556009820160006101000a81549073ffffffffffffffffffffffffffffffffffffffff0219169055600a820160006101000a81549073ffffffffffffffffffffffffffffffffffffffff02191690555050600560009054906101000a900473ffffffffffffffffffffffffffffffffffffffff1673ffffffffffffffffffffffffffffffffffffffff166323b872dd3083866040518463ffffffff1660e01b81526004016114e493929190612555565b600060405180830381600087803b1580156114fe57600080fd5b505af1158015611512573d6000803e3d6000fd5b505050507f31e46b3372adff8978a18a1c543a6b3a925ee693bdf7a7c54df36f30f87d290e83600560009054906101000a900473ffffffffffffffffffffffffffffffffffffffff168360405161156b93929190612857565b60405180910390a150600154811461158257600080fd5b5050565b61158e611135565b61159757600080fd5b8060038190555050565b600260009054906101000a900460ff16156115f1576040517f08c379a00000000000000000000000000000000000000000000000000000000081526004016115e89061271c565b60405180910390fd5b60018060008282540192505081905550600060015490506006600083815260200190815260200160002060000160009054906101000a900460ff1661166b576040517f08c379a00000000000000000000000000000000000000000000000000000000081526004016116629061273c565b60405180910390fd5b6006600083815260200190815260200160002060000160019054906101000a900460ff16156116cf576040517f08c379a00000000000000000000000000000000000000000000000000000000081526004016116c69061275c565b60405180910390fd5b600060066000848152602001908152602001600020600401541415611729576040517f08c379a0000000000000000000000000000000000000000000000000000000008152600401611720906126bc565b60405180910390fd5b600660008381526020019081526020016000206003015460066000848152602001908152602001600020600401540142101561179a576040517f08c379a0000000000000000000000000000000000000000000000000000000008152600401611791906127bc565b60405180910390fd5b600060066000848152602001908152602001600020600a0160009054906101000a900473ffffffffffffffffffffffffffffffffffffffff16905060006006600085815260200190815260200160002060010154905060006006600086815260200190815260200160002060070160009054906101000a900473ffffffffffffffffffffffffffffffffffffffff16905060006006600087815260200190815260200160002060060154905060006006600088815260200190815260200160002060080160009054906101000a900473ffffffffffffffffffffffffffffffffffffffff16905060006006600089815260200190815260200160002060090160009054906101000a900473ffffffffffffffffffffffffffffffffffffffff1690507f19f5e73c484e5274d91de54225d8a1330339f61b5f27dbe05c47ff361b8dd3c188600560009054906101000a900473ffffffffffffffffffffffffffffffffffffffff168689896040516119159594939291906128fd565b60405180910390a160066000898152602001908152602001600020600080820160006101000a81549060ff02191690556000820160016101000a81549060ff02191690556001820160009055600282016000905560038201600090556004820160009055600582016000905560068201600090556007820160006101000a81549073ffffffffffffffffffffffffffffffffffffffff02191690556008820160006101000a81549073ffffffffffffffffffffffffffffffffffffffff02191690556009820160006101000a81549073ffffffffffffffffffffffffffffffffffffffff0219169055600a820160006101000a81549073ffffffffffffffffffffffffffffffffffffffff02191690555050600560009054906101000a900473ffffffffffffffffffffffffffffffffffffffff1673ffffffffffffffffffffffffffffffffffffffff166323b872dd30888b6040518463ffffffff1660e01b8152600401611a8693929190612555565b600060405180830381600087803b158015611aa057600080fd5b505af1158015611ab4573d6000803e3d6000fd5b505050506000611ae06064611ad28689611d5290919063ffffffff16565b611d8c90919063ffffffff16565b90506000611af78288611d1390919063ffffffff16565b90506000821115611b4a578373ffffffffffffffffffffffffffffffffffffffff166108fc839081150290604051600060405180830381858888f19350505050158015611b48573d6000803e3d6000fd5b505b8273ffffffffffffffffffffffffffffffffffffffff166108fc829081150290604051600060405180830381858888f19350505050158015611b90573d6000803e3d6000fd5b5050505050505050506001548114611ba757600080fd5b5050565b60078181548110611bb857fe5b906000526020600020016000915090505481565b611bd4611135565b611bdd57600080fd5b8073ffffffffffffffffffffffffffffffffffffffff166301ffc9a76380ac58cd60e01b6040518263ffffffff1660e01b8152600401611c1d9190612661565b60206040518083038186803b158015611c3557600080fd5b505afa158015611c49573d6000803e3d6000fd5b505050506040513d601f19601f82011682018060405250611c6d9190810190611f65565b611cac576040517f08c379a0000000000000000000000000000000000000000000000000000000008152600401611ca3906127dc565b60405180910390fd5b80600560006101000a81548173ffffffffffffffffffffffffffffffffffffffff021916908373ffffffffffffffffffffffffffffffffffffffff16021790555050565b60035481565b611cfe611135565b611d0757600080fd5b611d1081611db2565b50565b600082821115611d2257600080fd5b600082840390508091505092915050565b600080828401905083811015611d4857600080fd5b8091505092915050565b600080831415611d655760009050611d86565b6000828402905082848281611d7657fe5b0414611d8157600080fd5b809150505b92915050565b6000808211611d9a57600080fd5b6000828481611da557fe5b0490508091505092915050565b600073ffffffffffffffffffffffffffffffffffffffff168173ffffffffffffffffffffffffffffffffffffffff161415611dec57600080fd5b8073ffffffffffffffffffffffffffffffffffffffff166000809054906101000a900473ffffffffffffffffffffffffffffffffffffffff1673ffffffffffffffffffffffffffffffffffffffff167f8be0079c531659141344cd1fd0a4f28419497f9722a3daafe3b4186f6b6457e060405160405180910390a3806000806101000a81548173ffffffffffffffffffffffffffffffffffffffff021916908373ffffffffffffffffffffffffffffffffffffffff16021790555050565b600081359050611eb981612a99565b92915050565b600081359050611ece81612ab0565b92915050565b600081359050611ee381612ac7565b92915050565b600081519050611ef881612ac7565b92915050565b600081359050611f0d81612ade565b92915050565b600060208284031215611f2557600080fd5b6000611f3384828501611eaa565b91505092915050565b600060208284031215611f4e57600080fd5b6000611f5c84828501611ed4565b91505092915050565b600060208284031215611f7757600080fd5b6000611f8584828501611ee9565b91505092915050565b600080600080600080600060e0888a031215611fa957600080fd5b6000611fb78a828b01611ed4565b9750506020611fc88a828b01611efe565b9650506040611fd98a828b01611efe565b9550506060611fea8a828b01611efe565b9450506080611ffb8a828b01611efe565b93505060a061200c8a828b01611ebf565b92505060c061201d8a828b01611ebf565b91505092959891949750929550565b60006020828403121561203e57600080fd5b600061204c84828501611efe565b91505092915050565b6000806040838503121561206857600080fd5b600061207685828601611efe565b925050602061208785828601611ed4565b9150509250929050565b61209a81612a63565b82525050565b6120a9816129ef565b82525050565b6120b8816129dd565b82525050565b6120c781612a01565b82525050565b6120d681612a0d565b82525050565b60006120e96016836129cc565b91507f41756374696f6e20616c726561647920657869737473000000000000000000006000830152602082019050919050565b60006121296027836129cc565b91507f43616e27742063616e63656c20616e2061756374696f6e206f6e63652069742760008301527f7320626567756e000000000000000000000000000000000000000000000000006020830152604082019050919050565b600061218f6014836129cc565b91507f41756374696f6e206861736e277420626567756e0000000000000000000000006000830152602082019050919050565b60006121cf602e836129cc565b91507f43616e206f6e6c792062652063616c6c65642062792061756374696f6e20637260008301527f6561746f72206f72206f776e65720000000000000000000000000000000000006020830152604082019050919050565b6000612235601c836129cc565b91507f4d7573742073656e64206d6f7265207468616e206c61737420626964000000006000830152602082019050919050565b60006122756012836129cc565b91507f4d757374206e6f742062652070617573656400000000000000000000000000006000830152602082019050919050565b60006122b56015836129cc565b91507f41756374696f6e20646f65736e277420657869737400000000000000000000006000830152602082019050919050565b60006122f5600e836129cc565b91507f41756374696f6e207061757365640000000000000000000000000000000000006000830152602082019050919050565b60006123356022836129cc565b91507f50657263656e746167652068617320746f206265206c657373207468616e203160008301527f30300000000000000000000000000000000000000000000000000000000000006020830152604082019050919050565b600061239b601e836129cc565b91507f4d7573742073656e6420726573657276655072696365206f72206d6f726500006000830152602082019050919050565b60006123db6018836129cc565b91507f41756374696f6e206861736e277420636f6d706c6574656400000000000000006000830152602082019050919050565b600061241b601d836129cc565b91507f446f65736e277420737570706f7274204e465420696e746572666163650000006000830152602082019050919050565b600061245b600f836129cc565b91507f41756374696f6e206578706972656400000000000000000000000000000000006000830152602082019050919050565b600061249b602d836129cc565b91507f4d7573742073656e64206d6f7265207468616e206c617374206269642062792060008301527f6d696e42696420416d6f756e74000000000000000000000000000000000000006020830152604082019050919050565b6124fd81612a59565b82525050565b600060208201905061251860008301846120af565b92915050565b60006060820190506125336000830186612091565b61254060208301856120af565b61254d60408301846124f4565b949350505050565b600060608201905061256a60008301866120af565b61257760208301856120af565b61258460408301846124f4565b949350505050565b60006020820190506125a160008301846120be565b92915050565b6000610180820190506125bd600083018f6120be565b6125ca602083018e6120be565b6125d7604083018d6124f4565b6125e4606083018c6124f4565b6125f1608083018b6124f4565b6125fe60a083018a6124f4565b61260b60c08301896124f4565b61261860e08301886124f4565b6126266101008301876120af565b6126346101208301866120a0565b6126426101408301856120a0565b6126506101608301846120a0565b9d9c50505050505050505050505050565b600060208201905061267660008301846120cd565b92915050565b60006020820190508181036000830152612695816120dc565b9050919050565b600060208201905081810360008301526126b58161211c565b9050919050565b600060208201905081810360008301526126d581612182565b9050919050565b600060208201905081810360008301526126f5816121c2565b9050919050565b6000602082019050818103600083015261271581612228565b9050919050565b6000602082019050818103600083015261273581612268565b9050919050565b60006020820190508181036000830152612755816122a8565b9050919050565b60006020820190508181036000830152612775816122e8565b9050919050565b6000602082019050818103600083015261279581612328565b9050919050565b600060208201905081810360008301526127b58161238e565b9050919050565b600060208201905081810360008301526127d5816123ce565b9050919050565b600060208201905081810360008301526127f58161240e565b9050919050565b600060208201905081810360008301526128158161244e565b9050919050565b600060208201905081810360008301526128358161248e565b9050919050565b600060208201905061285160008301846124f4565b92915050565b600060608201905061286c60008301866124f4565b61287960208301856120af565b61288660408301846120af565b949350505050565b600060e0820190506128a3600083018a6124f4565b6128b060208301896120af565b6128bd6040830188612091565b6128ca60608301876124f4565b6128d760808301866124f4565b6128e460a08301856120be565b6128f160c08301846120be565b98975050505050505050565b600060a08201905061291260008301886124f4565b61291f60208301876120af565b61292c60408301866120af565b61293960608301856120af565b61294660808301846124f4565b9695505050505050565b600060a08201905061296560008301886124f4565b61297260208301876120af565b61297f60408301866124f4565b61298c60608301856124f4565b6129996080830184612091565b9695505050505050565b60006040820190506129b860008301856124f4565b6129c560208301846120be565b9392505050565b600082825260208201905092915050565b60006129e882612a39565b9050919050565b60006129fa82612a39565b9050919050565b60008115159050919050565b60007fffffffff0000000000000000000000000000000000000000000000000000000082169050919050565b600073ffffffffffffffffffffffffffffffffffffffff82169050919050565b6000819050919050565b6000612a6e82612a75565b9050919050565b6000612a8082612a87565b9050919050565b6000612a9282612a39565b9050919050565b612aa2816129dd565b8114612aad57600080fd5b50565b612ab9816129ef565b8114612ac457600080fd5b50565b612ad081612a01565b8114612adb57600080fd5b50565b612ae781612a59565b8114612af257600080fd5b5056fea365627a7a723158200681cf478a95bf451e419dc2282ab9c504ce863b7aacd6434581c20f4916c6706c6578706572696d656e74616cf564736f6c63430005100040",
  "source": "pragma solidity ^0.5.0;\npragma experimental ABIEncoderV2;\n\nimport \"openzeppelin-solidity/contracts/math/SafeMath.sol\";\nimport \"openzeppelin-solidity/contracts/ownership/Ownable.sol\";\n\nimport \"openzeppelin-solidity/contracts/token/ERC721/IERC721.sol\";\nimport \"openzeppelin-solidity/contracts/introspection/IERC165.sol\";\nimport \"openzeppelin-solidity/contracts/utils/ReentrancyGuard.sol\";\n\n/**\n\n                                                              \n                                                                 \n                                                          \n                                                     \n                                          \n                                                                  \n                                                                                      \n                                                                                                          \n                                                                                                                       \n                                                                                                                                        \n                                                          \n                                                 \n                                          \n                                         \n                              \n                                                   \n                                                                      \n                                                                                                   \n                                                                                                                   \n                                                                                                                                    \n\n*/\n\ncontract ReserveAuction is Ownable, ReentrancyGuard {\n    using SafeMath for uint256;\n\n    bool public globalPaused;\n\n    uint256 public timeBuffer = 15 * 60; // extend 15 minutes after every bid made in last 15 minutes\n    uint256 public minBid = 1 * 10**17; // 0.1 eth\n\n    bytes4 constant interfaceId = 0x80ac58cd; // 721 interface id\n    address public nftAddress;\n\n    mapping(uint256 => Auction) public auctions;\n    uint256[] public tokenIds;\n\n    struct Auction {\n        bool exists;\n        bool paused;\n        uint256 amount;\n        uint256 tokenId;\n        uint256 duration;\n        uint256 firstBidTime;\n        uint256 reservePrice;\n        uint256 adminSplit; // percentage of 100\n        address creator;\n        address payable admin;\n        address payable proceedsRecipient;\n        address payable bidder;\n    }\n\n    modifier notPaused() {\n        require(!globalPaused, \"Must not be paused\");\n        _;\n    }\n\n    event AuctionCreated(\n        uint256 tokenId,\n        address nftAddress,\n        uint256 duration,\n        uint256 reservePrice,\n        address creator\n    );\n    event AuctionBid(\n        uint256 tokenId,\n        address nftAddress,\n        address sender,\n        uint256 value,\n        uint256 timestamp,\n        bool firstBid,\n        bool extended\n    );\n    event AuctionEnded(\n        uint256 tokenId,\n        address nftAddress,\n        address creator,\n        address winner,\n        uint256 amount\n    );\n    event AuctionCanceled(\n        uint256 tokenId,\n        address nftAddress,\n        address creator\n    );\n    event UpdateAuction(\n        uint256 tokenId,\n        bool paused\n    );\n\n    constructor(address _nftAddress) public {\n        require(\n            IERC165(_nftAddress).supportsInterface(interfaceId),\n            \"Doesn't support NFT interface\"\n        );\n        nftAddress = _nftAddress;\n    }\n\n    function updateNftAddress(address _nftAddress) public onlyOwner {\n        require(\n            IERC165(_nftAddress).supportsInterface(interfaceId),\n            \"Doesn't support NFT interface\"\n        );\n        nftAddress = _nftAddress;\n    }\n\n    function updateMinBid(uint256 _minBid) public onlyOwner {\n        minBid = _minBid;\n    }\n\n    function updateTimeBuffer(uint256 _timeBuffer) public onlyOwner {\n        timeBuffer = _timeBuffer;\n    }\n\n    function updateAuction(uint256 tokenId, bool paused) public onlyOwner {\n        require(auctions[tokenId].exists, \"Auction doesn't exist\");\n        auctions[tokenId].paused = paused;\n        emit UpdateAuction(tokenId, paused);\n    }\n\n    function createAuction(\n        bool paused,\n        uint256 tokenId,\n        uint256 duration,\n        uint256 reservePrice,\n        uint256 adminSplit, // percentage\n        address payable admin,\n        address payable proceedsRecipient\n    ) external notPaused onlyOwner nonReentrant {\n        require(!auctions[tokenId].exists, \"Auction already exists\");\n        require(adminSplit < 100, \"Percentage has to be less than 100\");\n        tokenIds.push(tokenId);\n\n        auctions[tokenId].paused = paused;\n        auctions[tokenId].exists = true;\n        auctions[tokenId].duration = duration;\n        auctions[tokenId].reservePrice = reservePrice;\n\n        auctions[tokenId].adminSplit = adminSplit;\n        auctions[tokenId].creator = msg.sender;\n        auctions[tokenId].admin = admin;\n        auctions[tokenId].proceedsRecipient = proceedsRecipient;\n\n        IERC721(nftAddress).transferFrom(msg.sender, address(this), tokenId);\n\n        emit AuctionCreated(tokenId, nftAddress, duration, reservePrice, msg.sender);\n    }\n\n    function createBid(uint256 tokenId) external payable notPaused nonReentrant {\n        require(auctions[tokenId].exists, \"Auction doesn't exist\");\n        require(!auctions[tokenId].paused, \"Auction paused\");\n        require(\n            msg.value >= auctions[tokenId].reservePrice,\n            \"Must send reservePrice or more\"\n        );\n        require(\n            auctions[tokenId].firstBidTime == 0 ||\n                block.timestamp <\n                auctions[tokenId].firstBidTime + auctions[tokenId].duration,\n            \"Auction expired\"\n        );\n\n        uint256 lastValue = auctions[tokenId].amount;\n\n        bool firstBid;\n        address payable lastBidder;\n\n        // allows for auctions with starting price of 0\n        if (lastValue != 0) {\n            require(msg.value > lastValue, \"Must send more than last bid\");\n            require(\n                msg.value.sub(lastValue) >= minBid,\n                \"Must send more than last bid by minBid Amount\"\n            );\n            lastBidder = auctions[tokenId].bidder;\n        } else {\n            firstBid = true;\n            auctions[tokenId].firstBidTime = block.timestamp;\n        }\n\n        auctions[tokenId].amount = msg.value;\n        auctions[tokenId].bidder = msg.sender;\n\n        bool extended;\n        // at this point we know that the timestamp is less than start + duration\n        // we want to know by how much the timestamp is less than start + duration\n        // if the difference is less than the timeBuffer, update duration to time buffer\n        if (\n            (auctions[tokenId].firstBidTime.add(auctions[tokenId].duration))\n                .sub(block.timestamp) < timeBuffer\n        ) {\n            // take the difference between now and starting point, add timeBuffer and set as duration\n            auctions[tokenId].duration = block.timestamp.sub(auctions[tokenId].firstBidTime).add(timeBuffer);\n            extended = true;\n        }\n\n \n\n        emit AuctionBid(\n            tokenId,\n            nftAddress,\n            msg.sender,\n            msg.value,\n            block.timestamp,\n            firstBid,\n            extended\n        );\n        if (!firstBid) {\n            // in case the bidder is a contract that doesn't allow receiving\n            if (!lastBidder.send(lastValue)) {\n                auctions[tokenId].admin.transfer(lastValue);\n            }\n        }\n    }\n\n    function endAuction(uint256 tokenId) external notPaused nonReentrant {\n        require(auctions[tokenId].exists, \"Auction doesn't exist\");\n        require(!auctions[tokenId].paused, \"Auction paused\");\n        require(\n            uint256(auctions[tokenId].firstBidTime) != 0,\n            \"Auction hasn't begun\"\n        );\n        require(\n            block.timestamp >=\n                auctions[tokenId].firstBidTime + auctions[tokenId].duration,\n            \"Auction hasn't completed\"\n        );\n\n        address winner = auctions[tokenId].bidder;\n        uint256 amount = auctions[tokenId].amount;\n        address creator = auctions[tokenId].creator;\n        uint256 adminSplit = auctions[tokenId].adminSplit;\n        address payable admin = auctions[tokenId].admin;\n        address payable proceedsRecipient = auctions[tokenId].proceedsRecipient;\n\n        emit AuctionEnded(tokenId, nftAddress, creator, winner, amount);\n        delete auctions[tokenId];\n\n        IERC721(nftAddress).transferFrom(address(this), winner, tokenId);\n\n        uint256 adminReceives = amount.mul(adminSplit).div(100);\n        uint256 proceedsAmount = amount.sub(adminReceives);\n        if (adminReceives > 0) {\n            admin.transfer(adminReceives);\n        }\n        proceedsRecipient.transfer(proceedsAmount);\n    }\n\n    function cancelAuction(uint256 tokenId) external nonReentrant {\n        require(auctions[tokenId].exists, \"Auction doesn't exist\");\n        require(\n            auctions[tokenId].creator == msg.sender || msg.sender == owner(),\n            \"Can only be called by auction creator or owner\"\n        );\n        require(\n            uint256(auctions[tokenId].firstBidTime) == 0,\n            \"Can't cancel an auction once it's begun\"\n        );\n        address creator = auctions[tokenId].creator;\n        delete auctions[tokenId];\n        IERC721(nftAddress).transferFrom(address(this), creator, tokenId);\n        emit AuctionCanceled(tokenId, nftAddress, creator);\n    }\n\n    function updatePaused(bool _globalPaused) public onlyOwner {\n        globalPaused = _globalPaused;\n    }\n}\n",
  "sourcePath": "/Users/cory/Code/pan/scammer-contracts/contracts/ReserveAuction.sol",
  "compiler": {
    "name": "solc",
    "version": "0.5.16+commit.9c3226ce.Emscripten.clang"
  },
  "schemaVersion": "3.3.4",
  "updatedAt": "2021-08-16T05:03:24.909Z",
  "devdoc": {
    "methods": {
      "isOwner()": {
        "return": "true if `msg.sender` is the owner of the contract."
      },
      "owner()": {
        "return": "the address of the owner."
      },
      "renounceOwnership()": {
        "details": "Allows the current owner to relinquish control of the contract."
      },
      "transferOwnership(address)": {
        "details": "Allows the current owner to transfer control of the contract to a newOwner.",
        "params": {
          "newOwner": "The address to transfer ownership to."
        }
      }
    }
  },
  "userdoc": {
    "methods": {
      "renounceOwnership()": {
        "notice": "Renouncing to ownership will leave the contract without an owner. It will not be possible to call the functions with the `onlyOwner` modifier anymore."
      }
    },
    "notice": "                                                                                                                                                                                                                                                                                                                                                                                                                                                                                                                                                                                                                                                                                                                                                                                                                                                                                                                                                                                                                                                                                                                                                                                                                                                                                                                                                                                                                                                                                            "
  }
}