{
  "contractName": "ScammerController",
  "abi": [
    {
      "inputs": [
        {
          "internalType": "contract Scammer",
          "name": "_scammer",
          "type": "address"
        },
        {
          "internalType": "address payable",
          "name": "_adminWallet",
          "type": "address"
        },
        {
          "internalType": "address payable",
          "name": "_artistWallet",
          "type": "address"
        },
        {
          "internalType": "address[]",
          "name": "voucherRecipients",
          "type": "address[]"
        }
      ],
      "payable": false,
      "stateMutability": "nonpayable",
      "type": "constructor"
    },
    {
      "anonymous": false,
      "inputs": [
        {
          "indexed": true,
          "internalType": "address",
          "name": "previousOwner",
          "type": "address"
        },
        {
          "indexed": true,
          "internalType": "address",
          "name": "newOwner",
          "type": "address"
        }
      ],
      "name": "OwnershipTransferred",
      "type": "event"
    },
    {
      "anonymous": false,
      "inputs": [
        {
          "indexed": false,
          "internalType": "uint256",
          "name": "collectionId",
          "type": "uint256"
        },
        {
          "indexed": false,
          "internalType": "uint256",
          "name": "editionId",
          "type": "uint256"
        },
        {
          "indexed": false,
          "internalType": "uint256",
          "name": "tokenId",
          "type": "uint256"
        },
        {
          "indexed": false,
          "internalType": "address",
          "name": "recipient",
          "type": "address"
        },
        {
          "indexed": false,
          "internalType": "uint256",
          "name": "paid",
          "type": "uint256"
        },
        {
          "indexed": false,
          "internalType": "uint256",
          "name": "artistReceived",
          "type": "uint256"
        },
        {
          "indexed": false,
          "internalType": "uint256",
          "name": "adminReceived",
          "type": "uint256"
        }
      ],
      "name": "editionBought",
      "type": "event"
    },
    {
      "anonymous": false,
      "inputs": [
        {
          "indexed": false,
          "internalType": "uint256",
          "name": "collectionId",
          "type": "uint256"
        },
        {
          "indexed": false,
          "internalType": "uint256",
          "name": "editions",
          "type": "uint256"
        },
        {
          "indexed": false,
          "internalType": "uint256",
          "name": "price",
          "type": "uint256"
        },
        {
          "indexed": false,
          "internalType": "bool",
          "name": "paused",
          "type": "bool"
        }
      ],
      "name": "newCollection",
      "type": "event"
    },
    {
      "anonymous": false,
      "inputs": [
        {
          "indexed": false,
          "internalType": "uint256",
          "name": "collectionId",
          "type": "uint256"
        },
        {
          "indexed": false,
          "internalType": "uint256",
          "name": "editions",
          "type": "uint256"
        },
        {
          "indexed": false,
          "internalType": "uint256",
          "name": "price",
          "type": "uint256"
        },
        {
          "indexed": false,
          "internalType": "enum ScammerController.CollectionMode",
          "name": "mode",
          "type": "uint8"
        }
      ],
      "name": "updatedCollection",
      "type": "event"
    },
    {
      "constant": true,
      "inputs": [],
      "name": "adminSplit",
      "outputs": [
        {
          "internalType": "uint256",
          "name": "",
          "type": "uint256"
        }
      ],
      "payable": false,
      "stateMutability": "view",
      "type": "function"
    },
    {
      "constant": true,
      "inputs": [],
      "name": "adminWallet",
      "outputs": [
        {
          "internalType": "address payable",
          "name": "",
          "type": "address"
        }
      ],
      "payable": false,
      "stateMutability": "view",
      "type": "function"
    },
    {
      "constant": true,
      "inputs": [],
      "name": "artistWallet",
      "outputs": [
        {
          "internalType": "address payable",
          "name": "",
          "type": "address"
        }
      ],
      "payable": false,
      "stateMutability": "view",
      "type": "function"
    },
    {
      "constant": true,
      "inputs": [
        {
          "internalType": "uint256",
          "name": "",
          "type": "uint256"
        }
      ],
      "name": "collections",
      "outputs": [
        {
          "internalType": "bool",
          "name": "exists",
          "type": "bool"
        },
        {
          "internalType": "enum ScammerController.CollectionMode",
          "name": "mode",
          "type": "uint8"
        },
        {
          "internalType": "bool",
          "name": "voucherOnlyMode",
          "type": "bool"
        },
        {
          "internalType": "uint256",
          "name": "editions",
          "type": "uint256"
        },
        {
          "internalType": "uint256",
          "name": "price",
          "type": "uint256"
        }
      ],
      "payable": false,
      "stateMutability": "view",
      "type": "function"
    },
    {
      "constant": true,
      "inputs": [],
      "name": "isOwner",
      "outputs": [
        {
          "internalType": "bool",
          "name": "",
          "type": "bool"
        }
      ],
      "payable": false,
      "stateMutability": "view",
      "type": "function"
    },
    {
      "constant": true,
      "inputs": [],
      "name": "latestCollectionId",
      "outputs": [
        {
          "internalType": "uint256",
          "name": "",
          "type": "uint256"
        }
      ],
      "payable": false,
      "stateMutability": "view",
      "type": "function"
    },
    {
      "constant": true,
      "inputs": [],
      "name": "owner",
      "outputs": [
        {
          "internalType": "address",
          "name": "",
          "type": "address"
        }
      ],
      "payable": false,
      "stateMutability": "view",
      "type": "function"
    },
    {
      "constant": true,
      "inputs": [],
      "name": "paused",
      "outputs": [
        {
          "internalType": "bool",
          "name": "",
          "type": "bool"
        }
      ],
      "payable": false,
      "stateMutability": "view",
      "type": "function"
    },
    {
      "constant": false,
      "inputs": [],
      "name": "renounceOwnership",
      "outputs": [],
      "payable": false,
      "stateMutability": "nonpayable",
      "type": "function"
    },
    {
      "constant": true,
      "inputs": [],
      "name": "scammer",
      "outputs": [
        {
          "internalType": "contract Scammer",
          "name": "",
          "type": "address"
        }
      ],
      "payable": false,
      "stateMutability": "view",
      "type": "function"
    },
    {
      "constant": false,
      "inputs": [
        {
          "internalType": "address",
          "name": "newOwner",
          "type": "address"
        }
      ],
      "name": "transferOwnership",
      "outputs": [],
      "payable": false,
      "stateMutability": "nonpayable",
      "type": "function"
    },
    {
      "constant": true,
      "inputs": [
        {
          "internalType": "address",
          "name": "",
          "type": "address"
        }
      ],
      "name": "vouchers",
      "outputs": [
        {
          "internalType": "uint256",
          "name": "",
          "type": "uint256"
        }
      ],
      "payable": false,
      "stateMutability": "view",
      "type": "function"
    },
    {
      "constant": false,
      "inputs": [
        {
          "internalType": "uint256",
          "name": "editions",
          "type": "uint256"
        },
        {
          "internalType": "uint256",
          "name": "price",
          "type": "uint256"
        },
        {
          "internalType": "bool",
          "name": "_paused",
          "type": "bool"
        }
      ],
      "name": "addCollection",
      "outputs": [],
      "payable": false,
      "stateMutability": "nonpayable",
      "type": "function"
    },
    {
      "constant": true,
      "inputs": [],
      "name": "getAllTokenIds",
      "outputs": [
        {
          "internalType": "uint256[]",
          "name": "",
          "type": "uint256[]"
        }
      ],
      "payable": false,
      "stateMutability": "view",
      "type": "function"
    },
    {
      "constant": false,
      "inputs": [
        {
          "internalType": "uint256",
          "name": "collectionId",
          "type": "uint256"
        }
      ],
      "name": "setVoucherOnlyMode",
      "outputs": [],
      "payable": false,
      "stateMutability": "nonpayable",
      "type": "function"
    },
    {
      "constant": false,
      "inputs": [
        {
          "internalType": "uint256",
          "name": "collectionId",
          "type": "uint256"
        },
        {
          "internalType": "bool",
          "name": "_paused",
          "type": "bool"
        }
      ],
      "name": "updateCollectionPaused",
      "outputs": [],
      "payable": false,
      "stateMutability": "nonpayable",
      "type": "function"
    },
    {
      "constant": false,
      "inputs": [
        {
          "internalType": "uint256",
          "name": "collectionId",
          "type": "uint256"
        },
        {
          "internalType": "uint256",
          "name": "_editions",
          "type": "uint256"
        }
      ],
      "name": "updateCollectionEditions",
      "outputs": [],
      "payable": false,
      "stateMutability": "nonpayable",
      "type": "function"
    },
    {
      "constant": false,
      "inputs": [
        {
          "internalType": "uint256",
          "name": "collectionId",
          "type": "uint256"
        },
        {
          "internalType": "uint256",
          "name": "_price",
          "type": "uint256"
        }
      ],
      "name": "updateCollectionPrice",
      "outputs": [],
      "payable": false,
      "stateMutability": "nonpayable",
      "type": "function"
    },
    {
      "constant": false,
      "inputs": [
        {
          "internalType": "address",
          "name": "recipient",
          "type": "address"
        },
        {
          "internalType": "uint256",
          "name": "tokenId",
          "type": "uint256"
        }
      ],
      "name": "redeem",
      "outputs": [
        {
          "internalType": "bool",
          "name": "",
          "type": "bool"
        }
      ],
      "payable": false,
      "stateMutability": "nonpayable",
      "type": "function"
    },
    {
      "constant": false,
      "inputs": [
        {
          "internalType": "address",
          "name": "recipient",
          "type": "address"
        },
        {
          "internalType": "uint256",
          "name": "tokenId",
          "type": "uint256"
        }
      ],
      "name": "buy",
      "outputs": [
        {
          "internalType": "bool",
          "name": "",
          "type": "bool"
        }
      ],
      "payable": true,
      "stateMutability": "payable",
      "type": "function"
    },
    {
      "constant": false,
      "inputs": [
        {
          "internalType": "address",
          "name": "recipient",
          "type": "address"
        }
      ],
      "name": "mintVoucher",
      "outputs": [],
      "payable": false,
      "stateMutability": "nonpayable",
      "type": "function"
    },
    {
      "constant": false,
      "inputs": [
        {
          "internalType": "address",
          "name": "recipient",
          "type": "address"
        },
        {
          "internalType": "uint256",
          "name": "numVouchers",
          "type": "uint256"
        }
      ],
      "name": "updateNumVouchers",
      "outputs": [],
      "payable": false,
      "stateMutability": "nonpayable",
      "type": "function"
    },
    {
      "constant": false,
      "inputs": [
        {
          "internalType": "address",
          "name": "recipient",
          "type": "address"
        }
      ],
      "name": "burnAllVouchers",
      "outputs": [],
      "payable": false,
      "stateMutability": "nonpayable",
      "type": "function"
    },
    {
      "constant": true,
      "inputs": [
        {
          "internalType": "address",
          "name": "recipient",
          "type": "address"
        }
      ],
      "name": "numVouchers",
      "outputs": [
        {
          "internalType": "uint256",
          "name": "",
          "type": "uint256"
        }
      ],
      "payable": false,
      "stateMutability": "view",
      "type": "function"
    },
    {
      "constant": false,
      "inputs": [
        {
          "internalType": "uint256",
          "name": "_adminSplit",
          "type": "uint256"
        }
      ],
      "name": "updateAdminSplit",
      "outputs": [],
      "payable": false,
      "stateMutability": "nonpayable",
      "type": "function"
    },
    {
      "constant": false,
      "inputs": [
        {
          "internalType": "address payable",
          "name": "_adminWallet",
          "type": "address"
        }
      ],
      "name": "updateAdminWallet",
      "outputs": [],
      "payable": false,
      "stateMutability": "nonpayable",
      "type": "function"
    },
    {
      "constant": false,
      "inputs": [
        {
          "internalType": "address payable",
          "name": "_artistWallet",
          "type": "address"
        }
      ],
      "name": "updateArtistWallet",
      "outputs": [],
      "payable": false,
      "stateMutability": "nonpayable",
      "type": "function"
    },
    {
      "constant": false,
      "inputs": [
        {
          "internalType": "bool",
          "name": "_paused",
          "type": "bool"
        }
      ],
      "name": "updatePaused",
      "outputs": [],
      "payable": false,
      "stateMutability": "nonpayable",
      "type": "function"
    }
  ],
  "bytecode": "0x608060405260146004553480156200001657600080fd5b5060405162002ad638038062002ad6833981810160405260808110156200003c57600080fd5b81019080805190602001909291908051906020019092919080519060200190929190805160405193929190846401000000008211156200007b57600080fd5b838201915060208201858111156200009257600080fd5b8251866020820283011164010000000082111715620000b057600080fd5b8083526020830192505050908051906020019060200280838360005b83811015620000e9578082015181840152602081019050620000cc565b50505050905001604052505050336000806101000a81548173ffffffffffffffffffffffffffffffffffffffff021916908373ffffffffffffffffffffffffffffffffffffffff1602179055506000809054906101000a900473ffffffffffffffffffffffffffffffffffffffff1673ffffffffffffffffffffffffffffffffffffffff16600073ffffffffffffffffffffffffffffffffffffffff167f8be0079c531659141344cd1fd0a4f28419497f9722a3daafe3b4186f6b6457e060405160405180910390a383600760006101000a81548173ffffffffffffffffffffffffffffffffffffffff021916908373ffffffffffffffffffffffffffffffffffffffff16021790555082600560006101000a81548173ffffffffffffffffffffffffffffffffffffffff021916908373ffffffffffffffffffffffffffffffffffffffff16021790555081600660006101000a81548173ffffffffffffffffffffffffffffffffffffffff021916908373ffffffffffffffffffffffffffffffffffffffff16021790555060008090505b81518110156200035e576000620002f56001600260008686815181106200029e57fe5b602002602001015173ffffffffffffffffffffffffffffffffffffffff1673ffffffffffffffffffffffffffffffffffffffff168152602001908152602001600020546200036960201b620025b71790919060201c565b905080600260008585815181106200030957fe5b602002602001015173ffffffffffffffffffffffffffffffffffffffff1673ffffffffffffffffffffffffffffffffffffffff168152602001908152602001600020819055505080806001019150506200027b565b505050505062000389565b6000808284019050838110156200037f57600080fd5b8091505092915050565b61273d80620003996000396000f3fe6080604052600436106101b75760003560e01c80638da5cb5b116100ec578063cce7ec131161008a578063edd52dff11610064578063edd52dff146108ba578063f285e7a11461090b578063f2fde38b14610966578063fdbda0ec146109b7576101b7565b8063cce7ec13146107d8578063d792440b1461083e578063df01e4bf14610869576101b7565b8063a3342fba116100c6578063a3342fba146106a5578063aa2b2515146106fc578063bdbed72214610727578063c7c9c15f14610793576101b7565b80638da5cb5b146105e45780638dff61ab1461063b5780638f32d59b14610676576101b7565b806348ff6e7d116101595780635eec0870116101335780635eec0870146104e657806366b05b0114610537578063715018a61461058857806381de5aef1461059f576101b7565b806348ff6e7d146104175780634cd31e731461047c5780635c975abb146104b7576101b7565b80631e9a6950116101955780631e9a69501461029757806330d5f0fc1461030a57806336b19cd71461035b578063450b9743146103b2576101b7565b8063066cae33146101bc57806308cdc2a8146102135780631b691ba614610250575b600080fd5b3480156101c857600080fd5b506101d1610a38565b604051808273ffffffffffffffffffffffffffffffffffffffff1673ffffffffffffffffffffffffffffffffffffffff16815260200191505060405180910390f35b34801561021f57600080fd5b5061024e6004803603602081101561023657600080fd5b81019080803515159060200190929190505050610a5e565b005b34801561025c57600080fd5b506102956004803603604081101561027357600080fd5b8101908080359060200190929190803515159060200190929190505050610a8c565b005b3480156102a357600080fd5b506102f0600480360360408110156102ba57600080fd5b81019080803573ffffffffffffffffffffffffffffffffffffffff16906020019092919080359060200190929190505050610c63565b604051808215151515815260200191505060405180910390f35b34801561031657600080fd5b506103596004803603602081101561032d57600080fd5b81019080803573ffffffffffffffffffffffffffffffffffffffff1690602001909291905050506111de565b005b34801561036757600080fd5b5061037061128e565b604051808273ffffffffffffffffffffffffffffffffffffffff1673ffffffffffffffffffffffffffffffffffffffff16815260200191505060405180910390f35b3480156103be57600080fd5b50610401600480360360208110156103d557600080fd5b81019080803573ffffffffffffffffffffffffffffffffffffffff1690602001909291905050506112b4565b6040518082815260200191505060405180910390f35b34801561042357600080fd5b506104666004803603602081101561043a57600080fd5b81019080803573ffffffffffffffffffffffffffffffffffffffff1690602001909291905050506112cc565b6040518082815260200191505060405180910390f35b34801561048857600080fd5b506104b56004803603602081101561049f57600080fd5b8101908080359060200190929190505050611315565b005b3480156104c357600080fd5b506104cc6113a7565b604051808215151515815260200191505060405180910390f35b3480156104f257600080fd5b506105356004803603602081101561050957600080fd5b81019080803573ffffffffffffffffffffffffffffffffffffffff1690602001909291905050506113ba565b005b34801561054357600080fd5b506105866004803603606081101561055a57600080fd5b81019080803590602001909291908035906020019092919080351515906020019092919050505061140f565b005b34801561059457600080fd5b5061059d6115ed565b005b3480156105ab57600080fd5b506105e2600480360360408110156105c257600080fd5b8101908080359060200190929190803590602001909291905050506116bd565b005b3480156105f057600080fd5b506105f96118ba565b604051808273ffffffffffffffffffffffffffffffffffffffff1673ffffffffffffffffffffffffffffffffffffffff16815260200191505060405180910390f35b34801561064757600080fd5b506106746004803603602081101561065e57600080fd5b81019080803590602001909291905050506118e3565b005b34801561068257600080fd5b5061068b611a71565b604051808215151515815260200191505060405180910390f35b3480156106b157600080fd5b506106ba611ac8565b604051808273ffffffffffffffffffffffffffffffffffffffff1673ffffffffffffffffffffffffffffffffffffffff16815260200191505060405180910390f35b34801561070857600080fd5b50610711611aee565b6040518082815260200191505060405180910390f35b34801561073357600080fd5b5061073c611af4565b6040518080602001828103825283818151815260200191508051906020019060200280838360005b8381101561077f578082015181840152602081019050610764565b505050509050019250505060405180910390f35b34801561079f57600080fd5b506107d6600480360360408110156107b657600080fd5b810190808035906020019092919080359060200190929190505050611cbb565b005b610824600480360360408110156107ee57600080fd5b81019080803573ffffffffffffffffffffffffffffffffffffffff16906020019092919080359060200190929190505050611e2d565b604051808215151515815260200191505060405180910390f35b34801561084a57600080fd5b506108536123c9565b6040518082815260200191505060405180910390f35b34801561087557600080fd5b506108b86004803603602081101561088c57600080fd5b81019080803573ffffffffffffffffffffffffffffffffffffffff1690602001909291905050506123cf565b005b3480156108c657600080fd5b50610909600480360360208110156108dd57600080fd5b81019080803573ffffffffffffffffffffffffffffffffffffffff169060200190929190505050612424565b005b34801561091757600080fd5b506109646004803603604081101561092e57600080fd5b81019080803573ffffffffffffffffffffffffffffffffffffffff1690602001909291908035906020019092919050505061247d565b005b34801561097257600080fd5b506109b56004803603602081101561098957600080fd5b81019080803573ffffffffffffffffffffffffffffffffffffffff1690602001909291905050506124d6565b005b3480156109c357600080fd5b506109f0600480360360208110156109da57600080fd5b81019080803590602001909291905050506124f3565b6040518086151515158152602001856002811115610a0a57fe5b60ff168152602001841515151581526020018381526020018281526020019550505050505060405180910390f35b600760009054906101000a900473ffffffffffffffffffffffffffffffffffffffff1681565b610a66611a71565b610a6f57600080fd5b80600660146101000a81548160ff02191690831515021790555050565b610a94611a71565b610a9d57600080fd5b6003600083815260200190815260200160002060000160009054906101000a900460ff16610b33576040517f08c379a00000000000000000000000000000000000000000000000000000000081526004018080602001828103825260198152602001807f434f4c4c454354494f4e5f444f45535f4e4f545f45584953540000000000000081525060200191505060405180910390fd5b8015610b7857600060036000600154815260200190815260200160002060000160016101000a81548160ff02191690836002811115610b6e57fe5b0217905550610bb3565b600260036000600154815260200190815260200160002060000160016101000a81548160ff02191690836002811115610bad57fe5b02179055505b7f74fe2a13d727432ac79d0a8ad458289125ea94ce759af4624221e53d18b59a5182600360008581526020019081526020016000206001015460036000868152602001908152602001600020600201546003600087815260200190815260200160002060000160019054906101000a900460ff1660405180858152602001848152602001838152602001826002811115610c4957fe5b60ff16815260200194505050505060405180910390a15050565b6000600660149054906101000a900460ff1615610ce8576040517f08c379a00000000000000000000000000000000000000000000000000000000081526004018080602001828103825260128152602001807f4d757374206e6f7420626520706175736564000000000000000000000000000081525060200191505060405180910390fd5b6000610d00620f42408461255090919063ffffffff16565b90506000610d1a620f42408561257690919063ffffffff16565b9050600280811115610d2857fe5b6003600084815260200190815260200160002060000160019054906101000a900460ff166002811115610d5757fe5b1480610d9c575060016002811115610d6b57fe5b6003600084815260200190815260200160002060000160019054906101000a900460ff166002811115610d9a57fe5b145b610e0e576040517f08c379a00000000000000000000000000000000000000000000000000000000081526004018080602001828103825260128152602001807f52454445454d5f4e4f545f454e41424c4544000000000000000000000000000081525060200191505060405180910390fd5b6003600083815260200190815260200160002060000160009054906101000a900460ff16610ea4576040517f08c379a00000000000000000000000000000000000000000000000000000000081526004018080602001828103825260108152602001807f494e56414c49445f544f4b454e5f49440000000000000000000000000000000081525060200191505060405180910390fd5b60036000838152602001908152602001600020600101548110610f2f576040517f08c379a00000000000000000000000000000000000000000000000000000000081526004018080602001828103825260108152602001807f494e56414c49445f544f4b454e5f49440000000000000000000000000000000081525060200191505060405180910390fd5b6000600260003373ffffffffffffffffffffffffffffffffffffffff1673ffffffffffffffffffffffffffffffffffffffff1681526020019081526020016000205411610fe4576040517f08c379a00000000000000000000000000000000000000000000000000000000081526004018080602001828103825260148152602001807f555345525f4841535f4e4f5f564f55434845525300000000000000000000000081525060200191505060405180910390fd5b600760009054906101000a900473ffffffffffffffffffffffffffffffffffffffff1673ffffffffffffffffffffffffffffffffffffffff166340c10f1986866040518363ffffffff1660e01b8152600401808373ffffffffffffffffffffffffffffffffffffffff1673ffffffffffffffffffffffffffffffffffffffff16815260200182815260200192505050600060405180830381600087803b15801561108d57600080fd5b505af11580156110a1573d6000803e3d6000fd5b5050505060006110fa6001600260008973ffffffffffffffffffffffffffffffffffffffff1673ffffffffffffffffffffffffffffffffffffffff1681526020019081526020016000205461259790919063ffffffff16565b905080600260008873ffffffffffffffffffffffffffffffffffffffff1673ffffffffffffffffffffffffffffffffffffffff168152602001908152602001600020819055507f98d41ea2d99604d19bd920bfa2fde9f14a004bb5f3bbacf3706fc23dd386f499838387896000806000604051808881526020018781526020018681526020018573ffffffffffffffffffffffffffffffffffffffff1673ffffffffffffffffffffffffffffffffffffffff16815260200184815260200183815260200182815260200197505050505050505060405180910390a150505092915050565b6111e6611a71565b6111ef57600080fd5b60006112446001600260008573ffffffffffffffffffffffffffffffffffffffff1673ffffffffffffffffffffffffffffffffffffffff168152602001908152602001600020546125b790919063ffffffff16565b905080600260008473ffffffffffffffffffffffffffffffffffffffff1673ffffffffffffffffffffffffffffffffffffffff168152602001908152602001600020819055505050565b600560009054906101000a900473ffffffffffffffffffffffffffffffffffffffff1681565b60026020528060005260406000206000915090505481565b6000600260008373ffffffffffffffffffffffffffffffffffffffff1673ffffffffffffffffffffffffffffffffffffffff168152602001908152602001600020549050919050565b61131d611a71565b61132657600080fd5b606481111561139d576040517f08c379a00000000000000000000000000000000000000000000000000000000081526004018080602001828103825260158152602001807f53504c49545f4d5553545f42455f4c54455f313030000000000000000000000081525060200191505060405180910390fd5b8060048190555050565b600660149054906101000a900460ff1681565b6113c2611a71565b6113cb57600080fd5b80600560006101000a81548173ffffffffffffffffffffffffffffffffffffffff021916908373ffffffffffffffffffffffffffffffffffffffff16021790555050565b611417611a71565b61142057600080fd5b620f42408310611498576040517f08c379a00000000000000000000000000000000000000000000000000000000081526004018080602001828103825260158152602001807f4d41585f45444954494f4e535f4558434545444544000000000000000000000081525060200191505060405180910390fd5b60018060008282540192505081905550600160036000600154815260200190815260200160002060000160006101000a81548160ff02191690831515021790555082600360006001548152602001908152602001600020600101819055508160036000600154815260200190815260200160002060020181905550801561155857600060036000600154815260200190815260200160002060000160016101000a81548160ff0219169083600281111561154e57fe5b0217905550611593565b600260036000600154815260200190815260200160002060000160016101000a81548160ff0219169083600281111561158d57fe5b02179055505b7fa869b76d568f6db8e218beac3d34119cfaa17030d9206a0697fabc12769ae4bc600154848484604051808581526020018481526020018381526020018215151515815260200194505050505060405180910390a1505050565b6115f5611a71565b6115fe57600080fd5b600073ffffffffffffffffffffffffffffffffffffffff166000809054906101000a900473ffffffffffffffffffffffffffffffffffffffff1673ffffffffffffffffffffffffffffffffffffffff167f8be0079c531659141344cd1fd0a4f28419497f9722a3daafe3b4186f6b6457e060405160405180910390a360008060006101000a81548173ffffffffffffffffffffffffffffffffffffffff021916908373ffffffffffffffffffffffffffffffffffffffff160217905550565b6116c5611a71565b6116ce57600080fd5b6003600083815260200190815260200160002060000160009054906101000a900460ff16611764576040517f08c379a00000000000000000000000000000000000000000000000000000000081526004018080602001828103825260198152602001807f434f4c4c454354494f4e5f444f45535f4e4f545f45584953540000000000000081525060200191505060405180910390fd5b806003600084815260200190815260200160002060010154106117ef576040517f08c379a00000000000000000000000000000000000000000000000000000000081526004018080602001828103825260168152602001807f45444954494f4e535f4d5553545f494e4352454153450000000000000000000081525060200191505060405180910390fd5b8060036000848152602001908152602001600020600101819055507f74fe2a13d727432ac79d0a8ad458289125ea94ce759af4624221e53d18b59a5182600360008581526020019081526020016000206001015460036000868152602001908152602001600020600201546003600087815260200190815260200160002060000160019054906101000a900460ff16604051808581526020018481526020018381526020018260028111156118a057fe5b60ff16815260200194505050505060405180910390a15050565b60008060009054906101000a900473ffffffffffffffffffffffffffffffffffffffff16905090565b6118eb611a71565b6118f457600080fd5b6003600082815260200190815260200160002060000160009054906101000a900460ff1661198a576040517f08c379a00000000000000000000000000000000000000000000000000000000081526004018080602001828103825260198152602001807f434f4c4c454354494f4e5f444f45535f4e4f545f45584953540000000000000081525060200191505060405180910390fd5b60016003600083815260200190815260200160002060000160016101000a81548160ff021916908360028111156119bd57fe5b02179055507f74fe2a13d727432ac79d0a8ad458289125ea94ce759af4624221e53d18b59a5181600360008481526020019081526020016000206001015460036000858152602001908152602001600020600201546003600086815260200190815260200160002060000160019054906101000a900460ff1660405180858152602001848152602001838152602001826002811115611a5857fe5b60ff16815260200194505050505060405180910390a150565b60008060009054906101000a900473ffffffffffffffffffffffffffffffffffffffff1673ffffffffffffffffffffffffffffffffffffffff163373ffffffffffffffffffffffffffffffffffffffff1614905090565b600660009054906101000a900473ffffffffffffffffffffffffffffffffffffffff1681565b60015481565b60606000600760009054906101000a900473ffffffffffffffffffffffffffffffffffffffff1673ffffffffffffffffffffffffffffffffffffffff166318160ddd6040518163ffffffff1660e01b815260040160206040518083038186803b158015611b6057600080fd5b505afa158015611b74573d6000803e3d6000fd5b505050506040513d6020811015611b8a57600080fd5b81019080805190602001909291905050509050606081604051908082528060200260200182016040528015611bce5781602001602082028038833980820191505090505b50905060008090505b82811015611cb257600760009054906101000a900473ffffffffffffffffffffffffffffffffffffffff1673ffffffffffffffffffffffffffffffffffffffff16634f6ccce7826040518263ffffffff1660e01b81526004018082815260200191505060206040518083038186803b158015611c5257600080fd5b505afa158015611c66573d6000803e3d6000fd5b505050506040513d6020811015611c7c57600080fd5b8101908080519060200190929190505050828281518110611c9957fe5b6020026020010181815250508080600101915050611bd7565b50809250505090565b611cc3611a71565b611ccc57600080fd5b6003600083815260200190815260200160002060000160009054906101000a900460ff16611d62576040517f08c379a00000000000000000000000000000000000000000000000000000000081526004018080602001828103825260198152602001807f434f4c4c454354494f4e5f444f45535f4e4f545f45584953540000000000000081525060200191505060405180910390fd5b8060036000848152602001908152602001600020600201819055507f74fe2a13d727432ac79d0a8ad458289125ea94ce759af4624221e53d18b59a5182600360008581526020019081526020016000206001015460036000868152602001908152602001600020600201546003600087815260200190815260200160002060000160019054906101000a900460ff1660405180858152602001848152602001838152602001826002811115611e1357fe5b60ff16815260200194505050505060405180910390a15050565b6000600660149054906101000a900460ff1615611eb2576040517f08c379a00000000000000000000000000000000000000000000000000000000081526004018080602001828103825260128152602001807f4d757374206e6f7420626520706175736564000000000000000000000000000081525060200191505060405180910390fd5b6000611eca620f42408461255090919063ffffffff16565b90506000611ee4620f42408561257690919063ffffffff16565b9050600280811115611ef257fe5b6003600084815260200190815260200160002060000160019054906101000a900460ff166002811115611f2157fe5b14611f94576040517f08c379a000000000000000000000000000000000000000000000000000000000815260040180806020018281038252600f8152602001807f4255595f4e4f545f454e41424c4544000000000000000000000000000000000081525060200191505060405180910390fd5b6003600083815260200190815260200160002060000160009054906101000a900460ff1661202a576040517f08c379a00000000000000000000000000000000000000000000000000000000081526004018080602001828103825260108152602001807f494e56414c49445f544f4b454e5f49440000000000000000000000000000000081525060200191505060405180910390fd5b600360008381526020019081526020016000206001015481106120b5576040517f08c379a00000000000000000000000000000000000000000000000000000000081526004018080602001828103825260108152602001807f494e56414c49445f544f4b454e5f49440000000000000000000000000000000081525060200191505060405180910390fd5b60036000838152602001908152602001600020600201543414612140576040517f08c379a00000000000000000000000000000000000000000000000000000000081526004018080602001828103825260128152602001807f4449445f4e4f545f53454e445f5052494345000000000000000000000000000081525060200191505060405180910390fd5b600760009054906101000a900473ffffffffffffffffffffffffffffffffffffffff1673ffffffffffffffffffffffffffffffffffffffff166340c10f1986866040518363ffffffff1660e01b8152600401808373ffffffffffffffffffffffffffffffffffffffff1673ffffffffffffffffffffffffffffffffffffffff16815260200182815260200192505050600060405180830381600087803b1580156121e957600080fd5b505af11580156121fd573d6000803e3d6000fd5b50505050600061222b606461221d600454346125d690919063ffffffff16565b61255090919063ffffffff16565b90506000612242823461259790919063ffffffff16565b9050600560009054906101000a900473ffffffffffffffffffffffffffffffffffffffff1673ffffffffffffffffffffffffffffffffffffffff166108fc839081150290604051600060405180830381858888f193505050501580156122ac573d6000803e3d6000fd5b50600660009054906101000a900473ffffffffffffffffffffffffffffffffffffffff1673ffffffffffffffffffffffffffffffffffffffff166108fc829081150290604051600060405180830381858888f19350505050158015612315573d6000803e3d6000fd5b507f98d41ea2d99604d19bd920bfa2fde9f14a004bb5f3bbacf3706fc23dd386f4998484888a600360008a8152602001908152602001600020600201548688604051808881526020018781526020018681526020018573ffffffffffffffffffffffffffffffffffffffff1673ffffffffffffffffffffffffffffffffffffffff16815260200184815260200183815260200182815260200197505050505050505060405180910390a15050505092915050565b60045481565b6123d7611a71565b6123e057600080fd5b80600660006101000a81548173ffffffffffffffffffffffffffffffffffffffff021916908373ffffffffffffffffffffffffffffffffffffffff16021790555050565b61242c611a71565b61243557600080fd5b6000600260008373ffffffffffffffffffffffffffffffffffffffff1673ffffffffffffffffffffffffffffffffffffffff1681526020019081526020016000208190555050565b612485611a71565b61248e57600080fd5b80600260008473ffffffffffffffffffffffffffffffffffffffff1673ffffffffffffffffffffffffffffffffffffffff168152602001908152602001600020819055505050565b6124de611a71565b6124e757600080fd5b6124f081612610565b50565b60036020528060005260406000206000915090508060000160009054906101000a900460ff16908060000160019054906101000a900460ff16908060000160029054906101000a900460ff16908060010154908060020154905085565b600080821161255e57600080fd5b600082848161256957fe5b0490508091505092915050565b60008082141561258557600080fd5b81838161258e57fe5b06905092915050565b6000828211156125a657600080fd5b600082840390508091505092915050565b6000808284019050838110156125cc57600080fd5b8091505092915050565b6000808314156125e9576000905061260a565b60008284029050828482816125fa57fe5b041461260557600080fd5b809150505b92915050565b600073ffffffffffffffffffffffffffffffffffffffff168173ffffffffffffffffffffffffffffffffffffffff16141561264a57600080fd5b8073ffffffffffffffffffffffffffffffffffffffff166000809054906101000a900473ffffffffffffffffffffffffffffffffffffffff1673ffffffffffffffffffffffffffffffffffffffff167f8be0079c531659141344cd1fd0a4f28419497f9722a3daafe3b4186f6b6457e060405160405180910390a3806000806101000a81548173ffffffffffffffffffffffffffffffffffffffff021916908373ffffffffffffffffffffffffffffffffffffffff1602179055505056fea265627a7a72315820120f4f5bfd73c8724c318d9c4fdb6a81a7c944a9f4ee787b8b7980b91c3bb74d64736f6c63430005100032",
  "source": "pragma solidity ^0.5.0;\n\n/**\n * The ScammerController is an upgradeable endpoint for controlling Scammer.sol\n */\n\nimport \"./Scammer.sol\";\nimport \"openzeppelin-solidity/contracts/math/SafeMath.sol\";\nimport \"openzeppelin-solidity/contracts/ownership/Ownable.sol\";\n\ncontract ScammerController is Ownable {\n\n    event newCollection(uint256 collectionId, uint256 editions, uint256 price, bool paused);\n    event updatedCollection(uint256 collectionId, uint256 editions, uint256 price, CollectionMode mode);\n    event editionBought(uint256 collectionId, uint256 editionId, uint256 tokenId, address recipient, uint256 paid, uint256 artistReceived, uint256 adminReceived);\n\n    using SafeMath for uint256;\n\n    uint256 constant MAX_EDITIONS = 1000000;\n    uint256 public latestCollectionId;\n\n    mapping (address => uint) public vouchers;\n\n    enum CollectionMode { PAUSED, VOUCHER_ONLY_MODE, UNPAUSED }\n\n    mapping (uint256 => Collection) public collections;\n    struct Collection {\n        bool exists;\n        CollectionMode mode;\n        bool voucherOnlyMode;\n        uint256 editions;\n        uint256 price;\n    }\n\n    uint256 public adminSplit = 20;\n\n    address payable public adminWallet;\n    address payable public artistWallet;\n    bool public paused;\n    Scammer public scammer;\n\n    modifier notPaused() {\n        require(!paused, \"Must not be paused\");\n        _;\n    }\n\n    constructor(\n        Scammer _scammer,\n        address payable _adminWallet,\n        address payable _artistWallet,\n        address[] memory voucherRecipients\n    ) public {\n        scammer = _scammer;\n        adminWallet = _adminWallet;\n        artistWallet = _artistWallet;\n\n        for (uint i = 0; i < voucherRecipients.length; i++) {\n            uint numVouchers = vouchers[voucherRecipients[i]].add(1);\n            vouchers[voucherRecipients[i]] = numVouchers;\n        }\n    }\n\n    function addCollection(uint256 editions, uint256 price, bool _paused) public onlyOwner {\n        require(editions < MAX_EDITIONS, \"MAX_EDITIONS_EXCEEDED\");\n\n        latestCollectionId += 1;\n\n        collections[latestCollectionId].exists = true;\n        collections[latestCollectionId].editions = editions;\n        collections[latestCollectionId].price = price;\n        if (_paused) {\n            collections[latestCollectionId].mode = CollectionMode.PAUSED;\n        } else {\n            collections[latestCollectionId].mode = CollectionMode.UNPAUSED;\n        }\n        emit newCollection(latestCollectionId, editions, price, _paused);\n    }\n\n    function getAllTokenIds() external view returns (uint256[] memory) {\n        uint totalSupply = scammer.totalSupply();\n\n        uint256[] memory tokenIds = new uint256[](totalSupply);\n\n        for (uint i = 0; i < totalSupply; i++) {\n            tokenIds[i] = scammer.tokenByIndex(i);\n        }\n\n        return tokenIds;\n    }\n\n    function setVoucherOnlyMode(uint256 collectionId) public onlyOwner {\n        require(collections[collectionId].exists, \"COLLECTION_DOES_NOT_EXIST\");\n        collections[collectionId].mode = CollectionMode.VOUCHER_ONLY_MODE;\n        emit updatedCollection(collectionId, collections[collectionId].editions, collections[collectionId].price, collections[collectionId].mode);\n    }\n\n    function updateCollectionPaused(uint256 collectionId, bool _paused) public onlyOwner {\n        require(collections[collectionId].exists, \"COLLECTION_DOES_NOT_EXIST\");\n        if (_paused) {\n            collections[latestCollectionId].mode = CollectionMode.PAUSED;\n        } else {\n            collections[latestCollectionId].mode = CollectionMode.UNPAUSED;\n        }\n        emit updatedCollection(collectionId, collections[collectionId].editions, collections[collectionId].price, collections[collectionId].mode);\n    }\n\n    function updateCollectionEditions(uint256 collectionId, uint256 _editions) public onlyOwner {\n        require(collections[collectionId].exists, \"COLLECTION_DOES_NOT_EXIST\");\n        require(collections[collectionId].editions < _editions, \"EDITIONS_MUST_INCREASE\");\n        collections[collectionId].editions = _editions;\n        emit updatedCollection(collectionId, collections[collectionId].editions, collections[collectionId].price, collections[collectionId].mode);\n    }\n\n    function updateCollectionPrice(uint256 collectionId, uint256 _price) public onlyOwner {\n        require(collections[collectionId].exists, \"COLLECTION_DOES_NOT_EXIST\");\n        collections[collectionId].price = _price;\n        emit updatedCollection(collectionId, collections[collectionId].editions, collections[collectionId].price, collections[collectionId].mode);\n    }\n\n    function redeem(address recipient, uint256 tokenId) public notPaused returns (bool) {\n        uint256 collectionId = tokenId.div(MAX_EDITIONS);\n        uint256 editionId = tokenId.mod(MAX_EDITIONS);\n\n        require(collections[collectionId].mode == CollectionMode.UNPAUSED || collections[collectionId].mode == CollectionMode.VOUCHER_ONLY_MODE, \"REDEEM_NOT_ENABLED\");\n        require(collections[collectionId].exists, \"INVALID_TOKEN_ID\");\n        require(editionId < collections[collectionId].editions, \"INVALID_TOKEN_ID\");\n        require(vouchers[msg.sender] > 0 , \"USER_HAS_NO_VOUCHERS\");\n\n        scammer.mint(recipient, tokenId);\n\n        uint numVouchers = vouchers[recipient].sub(1);\n        vouchers[recipient] = numVouchers;\n        \n        emit editionBought(collectionId, editionId, tokenId, recipient,  0, 0, 0);\n    }\n\n    function buy(address recipient, uint256 tokenId) public payable notPaused returns (bool) {\n        uint256 collectionId = tokenId.div(MAX_EDITIONS);\n        uint256 editionId = tokenId.mod(MAX_EDITIONS);\n\n        require(collections[collectionId].mode == CollectionMode.UNPAUSED, \"BUY_NOT_ENABLED\");\n        require(collections[collectionId].exists, \"INVALID_TOKEN_ID\");\n        require(editionId < collections[collectionId].editions, \"INVALID_TOKEN_ID\");\n        require(msg.value == collections[collectionId].price , \"DID_NOT_SEND_PRICE\");\n\n        scammer.mint(recipient, tokenId);\n        \n        uint256 adminReceives = msg.value.mul(adminSplit).div(100);\n        uint256 artistReceives = msg.value.sub(adminReceives);\n\n        adminWallet.transfer(adminReceives);\n        artistWallet.transfer(artistReceives);\n\n        emit editionBought(collectionId, editionId, tokenId, recipient,  collections[collectionId].price, artistReceives, adminReceives);\n    }\n\n    function mintVoucher(address recipient) public onlyOwner {\n        uint numVouchers = vouchers[recipient].add(1);\n        vouchers[recipient] = numVouchers;\n    }\n\n    function updateNumVouchers(address recipient, uint numVouchers) public onlyOwner {\n        vouchers[recipient] = numVouchers;\n    }\n\n    function burnAllVouchers(address recipient) public onlyOwner {\n        vouchers[recipient] = 0;\n    }\n\n    function numVouchers(address recipient) external view returns (uint) {\n        return vouchers[recipient];\n    }\n\n    function updateAdminSplit(uint256 _adminSplit) public onlyOwner {\n        require(_adminSplit <= 100, \"SPLIT_MUST_BE_LTE_100\");\n        adminSplit = _adminSplit;\n    }\n\n    function updateAdminWallet(address payable _adminWallet) public onlyOwner {\n        adminWallet = _adminWallet;\n    }\n\n    function updateArtistWallet(address payable _artistWallet) public onlyOwner {\n        artistWallet = _artistWallet;\n    }\n\n    function updatePaused(bool _paused) public onlyOwner {\n        paused = _paused;\n    }\n}",
  "sourcePath": "/Users/cory/Code/pan/scammer-contracts/contracts/ScammerController.sol",
  "compiler": {
    "name": "solc",
    "version": "0.5.16+commit.9c3226ce.Emscripten.clang"
  },
  "schemaVersion": "3.3.4",
  "updatedAt": "2021-08-19T03:27:06.122Z",
  "devdoc": {
    "methods": {
      "isOwner()": {
        "return": "true if `msg.sender` is the owner of the contract."
      },
      "owner()": {
        "return": "the address of the owner."
      },
      "renounceOwnership()": {
        "details": "Allows the current owner to relinquish control of the contract."
      },
      "transferOwnership(address)": {
        "details": "Allows the current owner to transfer control of the contract to a newOwner.",
        "params": {
          "newOwner": "The address to transfer ownership to."
        }
      }
    }
  },
  "userdoc": {
    "methods": {
      "renounceOwnership()": {
        "notice": "Renouncing to ownership will leave the contract without an owner. It will not be possible to call the functions with the `onlyOwner` modifier anymore."
      }
    }
  }
}